{
  "contractName": "RPS",
  "abi": [
    {
      "constant": false,
      "inputs": [],
      "name": "j2Timeout",
      "outputs": [],
      "payable": false,
      "stateMutability": "nonpayable",
      "type": "function"
    },
    {
      "constant": true,
      "inputs": [],
      "name": "stake",
      "outputs": [
        {
          "name": "",
          "type": "uint256"
        }
      ],
      "payable": false,
      "stateMutability": "view",
      "type": "function"
    },
    {
      "constant": true,
      "inputs": [],
      "name": "c2",
      "outputs": [
        {
          "name": "",
          "type": "uint8"
        }
      ],
      "payable": false,
      "stateMutability": "view",
      "type": "function"
    },
    {
      "constant": true,
      "inputs": [],
      "name": "c1Hash",
      "outputs": [
        {
          "name": "",
          "type": "bytes32"
        }
      ],
      "payable": false,
      "stateMutability": "view",
      "type": "function"
    },
    {
      "constant": false,
      "inputs": [
        {
          "name": "_c2",
          "type": "uint8"
        }
      ],
      "name": "play",
      "outputs": [],
      "payable": true,
      "stateMutability": "payable",
      "type": "function"
    },
    {
      "constant": true,
      "inputs": [],
      "name": "j2",
      "outputs": [
        {
          "name": "",
          "type": "address"
        }
      ],
      "payable": false,
      "stateMutability": "view",
      "type": "function"
    },
    {
      "constant": true,
      "inputs": [],
      "name": "lastAction",
      "outputs": [
        {
          "name": "",
          "type": "uint256"
        }
      ],
      "payable": false,
      "stateMutability": "view",
      "type": "function"
    },
    {
      "constant": false,
      "inputs": [
        {
          "name": "_c1",
          "type": "uint8"
        },
        {
          "name": "_salt",
          "type": "uint256"
        }
      ],
      "name": "solve",
      "outputs": [],
      "payable": false,
      "stateMutability": "nonpayable",
      "type": "function"
    },
    {
      "constant": true,
      "inputs": [],
      "name": "j1",
      "outputs": [
        {
          "name": "",
          "type": "address"
        }
      ],
      "payable": false,
      "stateMutability": "view",
      "type": "function"
    },
    {
      "constant": false,
      "inputs": [],
      "name": "j1Timeout",
      "outputs": [],
      "payable": false,
      "stateMutability": "nonpayable",
      "type": "function"
    },
    {
      "constant": true,
      "inputs": [],
      "name": "TIMEOUT",
      "outputs": [
        {
          "name": "",
          "type": "uint256"
        }
      ],
      "payable": false,
      "stateMutability": "view",
      "type": "function"
    },
    {
      "inputs": [
        {
          "name": "_c1Hash",
          "type": "bytes32"
        },
        {
          "name": "_j2",
          "type": "address"
        }
      ],
      "payable": true,
      "stateMutability": "payable",
      "type": "constructor"
    }
  ],
  "bytecode": "0x606060405261012c6005556040516040806109ff8339810160405280805190602001909190805190602001909190505034600481905550336000806101000a81548173ffffffffffffffffffffffffffffffffffffffff021916908373ffffffffffffffffffffffffffffffffffffffff16021790555080600160006101000a81548173ffffffffffffffffffffffffffffffffffffffff021916908373ffffffffffffffffffffffffffffffffffffffff1602179055508160028160001916905550426006819055505050610925806100da6000396000f3006060604052600436106100af576000357c0100000000000000000000000000000000000000000000000000000000900463ffffffff168063294914a4146100b45780633a4b66f1146100c957806348e257cb146100f25780634d03e3d21461012957806353a04b051461015a57806380985af91461017557806389f71d53146101ca578063a5ddec7c146101f3578063c37597c614610222578063c839114214610277578063f56f48f21461028c575b600080fd5b34156100bf57600080fd5b6100c76102b5565b005b34156100d457600080fd5b6100dc61036a565b6040518082815260200191505060405180910390f35b34156100fd57600080fd5b610105610370565b6040518082600581111561011557fe5b60ff16815260200191505060405180910390f35b341561013457600080fd5b61013c610383565b60405180826000191660001916815260200191505060405180910390f35b610173600480803560ff16906020019091905050610389565b005b341561018057600080fd5b610188610456565b604051808273ffffffffffffffffffffffffffffffffffffffff1673ffffffffffffffffffffffffffffffffffffffff16815260200191505060405180910390f35b34156101d557600080fd5b6101dd61047c565b6040518082815260200191505060405180910390f35b34156101fe57600080fd5b610220600480803560ff16906020019091908035906020019091905050610482565b005b341561022d57600080fd5b61023561074b565b604051808273ffffffffffffffffffffffffffffffffffffffff1673ffffffffffffffffffffffffffffffffffffffff16815260200191505060405180910390f35b341561028257600080fd5b61028a610770565b005b341561029757600080fd5b61029f61082a565b6040518082815260200191505060405180910390f35b600060058111156102c257fe5b600360009054906101000a900460ff1660058111156102dd57fe5b1415156102e957600080fd5b60055460065401421115156102fd57600080fd5b6000809054906101000a900473ffffffffffffffffffffffffffffffffffffffff1673ffffffffffffffffffffffffffffffffffffffff166108fc6004549081150290604051600060405180830381858888f19350505050151561036057600080fd5b6000600481905550565b60045481565b600360009054906101000a900460ff1681565b60025481565b6000600581111561039657fe5b600360009054906101000a900460ff1660058111156103b157fe5b1415156103bd57600080fd5b600454341415156103cd57600080fd5b600160009054906101000a900473ffffffffffffffffffffffffffffffffffffffff1673ffffffffffffffffffffffffffffffffffffffff163373ffffffffffffffffffffffffffffffffffffffff1614151561042957600080fd5b80600360006101000a81548160ff0219169083600581111561044757fe5b02179055504260068190555050565b600160009054906101000a900473ffffffffffffffffffffffffffffffffffffffff1681565b60065481565b6000600581111561048f57fe5b600360009054906101000a900460ff1660058111156104aa57fe5b141515156104b757600080fd5b6000809054906101000a900473ffffffffffffffffffffffffffffffffffffffff1673ffffffffffffffffffffffffffffffffffffffff163373ffffffffffffffffffffffffffffffffffffffff1614151561051257600080fd5b6002546000191682826040518083600581111561052b57fe5b60ff167f01000000000000000000000000000000000000000000000000000000000000000281526001018281526020019250505060405180910390206000191614151561057757600080fd5b61059082600360009054906101000a900460ff16610830565b15610600576000809054906101000a900473ffffffffffffffffffffffffffffffffffffffff1673ffffffffffffffffffffffffffffffffffffffff166108fc6004546002029081150290604051600060405180830381858888f1935050505015156105fb57600080fd5b61073f565b610619600360009054906101000a900460ff1683610830565b1561068a57600160009054906101000a900473ffffffffffffffffffffffffffffffffffffffff1673ffffffffffffffffffffffffffffffffffffffff166108fc6004546002029081150290604051600060405180830381858888f19350505050151561068557600080fd5b61073e565b6000809054906101000a900473ffffffffffffffffffffffffffffffffffffffff1673ffffffffffffffffffffffffffffffffffffffff166108fc6004549081150290604051600060405180830381858888f1935050505050600160009054906101000a900473ffffffffffffffffffffffffffffffffffffffff1673ffffffffffffffffffffffffffffffffffffffff166108fc6004549081150290604051600060405180830381858888f19350505050505b5b60006004819055505050565b6000809054906101000a900473ffffffffffffffffffffffffffffffffffffffff1681565b6000600581111561077d57fe5b600360009054906101000a900460ff16600581111561079857fe5b141515156107a557600080fd5b60055460065401421115156107b957600080fd5b600160009054906101000a900473ffffffffffffffffffffffffffffffffffffffff1673ffffffffffffffffffffffffffffffffffffffff166108fc6004546002029081150290604051600060405180830381858888f19350505050151561082057600080fd5b6000600481905550565b60055481565b600081600581111561083e57fe5b83600581111561084a57fe5b141561085957600090506108f3565b6000600581111561086657fe5b83600581111561087257fe5b141561088157600090506108f3565b600282600581111561088f57fe5b81151561089857fe5b0660028460058111156108a757fe5b8115156108b057fe5b0614156108d7578160058111156108c357fe5b8360058111156108cf57fe5b1090506108f3565b8160058111156108e357fe5b8360058111156108ef57fe5b1190505b929150505600a165627a7a72305820abb186e011926d8b1eb60b12560ff7d1af40028e9f94fe838a9dc35684daf8450029",
  "source": "/**\n *  @title Rock Paper Scissors Lizard Spock\n *  @author Clément Lesaege - <clement@lesaege.com>\n *  @author Nicolas Wagner - <nicolas@kleros.io>\n */\n\n/* This program is free software. It comes without any warranty, to\nthe extent permitted by applicable law. You can redistribute it\nand/or modify it under the terms of the Do What The Fuck You Want\nTo Public License, Version 2, as published by Sam Hocevar. See\nhttp://www.wtfpl.net/ for more details. */\n\npragma solidity ^0.4.18;\n\ncontract RPS {\n    address public j1; // The first player creating the contract.\n    address public j2; // The second player.\n    enum Move {Null, Rock, Paper, Scissors, Spock, Lizard} // Possible moves. Note that if the parity of the moves is the same the lower one wins, otherwise the higher one.\n    bytes32 public c1Hash; // Commitment of j1.\n    Move public c2; // Move of j2. Move.Null before he played.\n    uint256 public stake; // Amout bet by each party.\n    uint256 public TIMEOUT = 5 minutes; // If some party takes more than TIMEOUT to respond, the other can call TIMEOUT to win.\n    uint256 public lastAction; // The time of the last action. Usefull to determine if someone has timed out.\n\n    /** @dev Constructor. Must send the amount at stake when creating the contract. Note that the move and salt must be saved.\n     *  @param _c1Hash Must be equal to keccak256(c1,salt) where c1 is the move of the j1.\n     */\n    function RPS(bytes32 _c1Hash, address _j2) public payable {\n        stake = msg.value; // La mise correspond à la quantité d'ethers envoyés.\n        j1=msg.sender;\n        j2=_j2;\n        c1Hash=_c1Hash;\n        lastAction=now;\n    }\n\n    /** @dev To be called by j2 and provided stake.\n     *  @param _c2 The move submitted by j2.\n     */\n    function play(Move _c2) public payable {\n        require(c2==Move.Null); // J2 has not played yet.\n        require(msg.value==stake); // J2 has paid the stake.\n        require(msg.sender==j2); // Only j2 can call this function.\n\n        c2=_c2;\n        lastAction=now;\n    }\n\n    /** @dev To be called by j1. Reveal the move and send the ETH to the winning party or split them.\n     *  @param _c1 The move played by j1.\n     *  @param _salt The salt used when submitting the commitment when the constructor was called.\n     */\n    function solve(Move _c1, uint256 _salt) public {\n        require(c2!=Move.Null); // J2 must have played.\n        require(msg.sender==j1); // J1 can call this.\n        require(keccak256(_c1,_salt)==c1Hash); // Verify the value is the commited one.\n\n        // Despite what the warnings say, we should not use transfer as a throwing fallback would be able to block the contract, in case of tie.\n        if (win(_c1,c2))\n            j1.transfer(2*stake);\n        else if (win(c2,_c1))\n            j2.transfer(2*stake);\n        else {\n            j1.send(stake);\n            j2.send(stake);\n        }\n        stake=0;\n    }\n\n    /** @dev Let j2 get the funds back if j1 did not play.\n     */\n    function j1Timeout() public {\n        require(c2!=Move.Null); // J2 already played.\n        require(now > lastAction + TIMEOUT); // Timeout time has passed.\n        j2.transfer(2*stake);\n        stake=0;\n    }\n\n    /** @dev Let j1 take back the funds if j2 never play.\n     */\n    function j2Timeout() public {\n        require(c2==Move.Null); // J2 has not played.\n        require(now > lastAction + TIMEOUT); // Timeout time has passed.\n        j1.transfer(stake);\n        stake=0;\n    }\n\n    /** @dev Is this move winning over the other.\n     *  @param _c1 The first move.\n     *  @param _c2 The move the first move is considered again.\n     *  @return w True if c1 beats c2. False if c1 is beaten by c2 or in case of tie.\n     */\n    function win(Move _c1, Move _c2) private pure returns (bool w) {\n        if (_c1 == _c2)\n            return false; // They played the same so no winner.\n        else if (_c1==Move.Null)\n            return false; // They did not play.\n        else if (uint(_c1)%2==uint(_c2)%2)\n            return (_c1<_c2);\n        else\n            return (_c1>_c2);\n    }\n\n}\n",
  "sourcePath": "/private/tmp/RPS-truffle/contracts/RPS.sol",
  "compiler": {
    "name": "solc",
    "version": "0.4.18+commit.9cf6e910.Emscripten.clang"
  },
  "schemaVersion": "1.0.1",
  "updatedAt": "2018-04-25T08:54:51.189Z"
}